:1000000000000220010100003D1A0000D725000079
:100010003D1A00003D1A00003D1A000000000000DB
:100020000000000000000000000000003D1A000079
:100030003D1A0000000000003D1A00003D1A0000BB
:100040003D1A00003D1A00003D1A00003D1A000054
:100050003D1A00003D1A00003D1A00003D1A000044
:100060003D1A00003D1A00003D1A00003D1A000034
:100070003D1A00003D1A00003D1A00003D1A000024
:100080003D1A00003D1A00003D1A00003D1A000014
:100090003D1A00003D1A00003D1A00003D1A000004
:1000A0003D1A00003D1A00003D1A00003D1A0000F4
:1000B0003D1A00003D1A0000000000000000000092
:1000C0003D1A00003D1A00003D1A00003D1A0000D4
:1000D0003D1A00003D1A00003D1A00003D1A0000C4
:1000E0003D1A0000000000000000000000000000B9
:1000F000000000003D1A0000000000003D1A000052
:1001000080B56F4601F0A6FC40F20000C2F200008C
:1001100040F21001C2F2000101F0AEFA40F200001C
:10012000C2F2000040F20001C2F2000143F2F812F4
:10013000C0F2000201F0D5FA4EF68850CEF200006F
:10014000016841F4700101F051FB01F073FC80B5CE
:100150006F4682B0019000F0EEFB02B080BD81B02E
:1001600002208DF803009DF8030001B0704780B5B0
:100170006F4684B000F037F8019007F8020C00F0E9
:100180001CF800F0E1FB03A800F036FA01460198E4
:100190000A46029207F8011C00F03EF828B9FFE772
:1001A000029800F0010004B080BD00F001F8F7E70C
:1001B00080B56F4600F0BDFB80BD80B56F4600F096
:1001C000B6FB80BD84B000900191007800F0010082
:1001D0000290097801F001010391401AB0FA80F011
:1001E000400904B0704780B56F4682B000F0A9FBAB
:1001F000019000F00100012804D0FFE7002007F87B
:10020000050C03E0012007F8050CFFE717F8050CC3
:1002100000F0010002B080BD80B56F4682B007F8E3
:10022000010C42F20461C0F20001781EFFF7CAFF20
:1002300002B080BD81B08DF802008DF803009DF8FA
:10024000030001B0704781B08DF802008DF8030003
:100250009DF8030000F0010001B0704781B08DF8F7
:1002600002008DF803009DF8030001B0704781B0D3
:100270008DF802008DF803009DF8030000F00100E6
:1002800001B0704781B08DF802008DF803009DF831
:10029000030001B0704780B56F4600F000F880B5EC
:1002A0006F468AB042F20561C0F2000100200D22C3
:1002B00001F0EFF800F0DFF9ADF81800000C8DF850
:1002C0001A009DF81A008DF81200BDF81800ADF85C
:1002D00010000B2007F8190C9DF8100000F0010029
:1002E00007F81B0C9DF8110007F81A0C17F8190CE9
:1002F0008DF81E0037F81B0CADF81C009DF81E1081
:10030000BDF81C0040EA014000F059FAADF82000A9
:10031000000C8DF822009DF8220007F81C0CBDF897
:10032000200027F81E0C00F09AF907F8030C17F8C4
:10033000030CC00730B9FFE742F22060C0F20000B2
:1003400001F08DFB00F08BFA00F076F8FFE705A8CE
:1003500000F061F807F8020C17F8020C00F0010039
:1003600007F8010C30B9FFE7A7F11E0000F0D8F93B
:10037000B0B90CE042F26061C0F20001002022221C
:1003800001F087F8A7F11E0000F0CFF91EE042F25D
:100390003061C0F200010020062201F07AF815E079
:1003A00042F23661C0F200010020242201F071F80F
:1003B000A7F11E00019000F0BCF9019842F25A61C9
:1003C000C0F20001062200F0B8F9FFE74FF47A709E
:1003D000FFF7BDFEBBE780B56F468AB0039040F2E1
:1003E0001050C5F2000005900790089000F03AFA0E
:1003F0000690029002A809900490029800F400610F
:10040000012080EAD12007F8210C17F8210C00F018
:1004100001000AB080BD80B56F4682B00190FFF741
:10042000DAFF00F005F902B080BD81B08DF803005D
:1004300080F0010001B0704780B56F4688B040F28F
:100440002C70C5F2000000900390022004900290EE
:1004500002A800F00AF80146009809680590069184
:10046000079001F0C3F908B080BD80B56F46BCB0FD
:10047000014606910891139119910A910020039069
:1004800007F8C90C17F8C90C219100F0010007F812
:10049000650C42F2EC61C0F200010491FFF7D3FE5B
:1004A0000499069A86460398239207F85DEC239BED
:1004B00034931B6823F0010307F82EECDDF88CC0A1
:1004C000CDF8E4C07344CCF80030169218920C9228
:1004D00007F8C10C17F8C10C1D9200F0010007F8D5
:1004E000750CFFF7C4FE0499069A84461F9207F81C
:1004F0006DCC1F983590006820F0020007F82DCCD5
:100500001F9B3A9340EA4C00186014921B92109281
:10051000032007F8B10C17F8B10C2D9207F8350C31
:10052000FFF79CFE0499069A2F9207F82F0C2F9A3A
:100530003192126822F00C02019200F088F9019BBE
:100540000499069A844603980CF0030EDDF8BCC0AB
:10055000CDF8D8C043EA8E03CCF8003015921A9239
:100560000E9207F8B90C17F8B90C259207F8550C3C
:10057000FFF760FE0499069A279207F84D0C279A18
:100580003392126822F4E062029200F060F9029B5A
:100590000499069A844603980CF0070EDDF89CC077
:1005A000CDF8E0C043EA0E23CCF8003017921C923D
:1005B000129207F8A90C17F8A90C299207F8450C14
:1005C000FFF760FE0499069A2B9207F83D0C2B9AD0
:1005D0003292126822F44032059200F038F90599FF
:1005E0000246069802F003032B9A379241EA034130
:1005F00011603B903CB080BD80B56F4682B00190E9
:1006000040F20000C2F200000078C00730B9FFE7F6
:1006100000F02AF8012007F8060C03E0002007F894
:10062000060CFFE717F8060C00F0010002B080BDD1
:1006300080B56F4682B007F8050CFFE717F8050C88
:1006400000F0010007F8010CFFF7EFFE8DF8040041
:10065000FFE79DF8040000F0010002B080BD80B506
:100660006F46FFF784FD80BD40F20001C2F2000139
:1006700001200870704780B56F4682B000F013F813
:100680000090FFF76CFD009900228DF806208DF890
:1006900004108DF805009DF80610BDF8040040EA2E
:1006A000014002B080BD81B000208DF803009DF8AC
:1006B000030000F0010001B0704780B56F4684B0C0
:1006C00000F05BF8ADF80C00000C8DF80E009DF802
:1006D0000E008DF80A00BDF80C00ADF808009DF87A
:1006E0000A008DF80600BDF80800ADF804009DF87A
:1006F0000610BDF8040040EA014004B080BD83B09C
:10070000ADF80410090C8DF806109DF806108DF850
:100710000210BDF80410ADF80010029003B070474D
:1007200081B00090002001B0704781B0009001B00E
:10073000704781B0009001B0704783B00090019184
:10074000029203B0704780B56F4682B0FFF7B5FFE5
:10075000ADF80400000C8DF806009DF806008DF839
:100760000200BDF80400ADF800009DF80210BDF8CD
:10077000000040EA014002B080BD80B56F4682B003
:1007800000F013F8009000F05AF8009900228DF85C
:1007900006208DF804108DF805009DF80610BDF8B0
:1007A000040040EA014002B080BD81B000208DF815
:1007B00003009DF8030000F0010001B0704780B510
:1007C0006F4686B0ADF80400000C8DF806009DF869
:1007D00006008DF80200BDF80400ADF80000FFF738
:1007E000B2FFADF81000000C8DF812009DF8120059
:1007F0008DF80E00BDF81000ADF80C009DF8020059
:100800008DF81600BDF80000ADF814009DF8161024
:10081000BDF8140040EA014103A8FFF770FF9DF8FE
:100820000E008DF80A00BDF80C00ADF808009DF828
:100830000A10BDF8080040EA014006B080BD81B052
:1008400002208DF803009DF8030001B0704781B0CD
:100850008DF802008DF80300C0B201B0704781B07E
:1008600001B0704780B56F4684B001900290FFE7F9
:100870000198042100F007F8FFE701980068039051
:10088000039804B080BD80B56F468EB00191099089
:100890000A9142F22871C0F200010B910C900146BE
:1008A000029108B9FFE719E001984FF0553101EACC
:1008B0005001401A4FF0333101EA900120F0CC3062
:1008C000084400EB101020F0F0304FF001314843A5
:1008D000000E0D900D98012807D00CE042F2307008
:1008E000C0F200006E2101F0F6F80298019901397A
:1008F00008421AD0F2E742F22870C0F200000390DA
:100900000120049042F2A070C0F20000016840682B
:1009100007910890042005900020069042F62001DF
:10092000C0F2000103A801F0A4F80EB080BD72B6B9
:10093000704762B67047012101EB50000138FDD1CC
:100940007047EFF310807047704780B56F4686B0F0
:1009500001920291039004910592814207D2FFE730
:1009600042F63000C0F20000612101F0B4F80298B4
:1009700001998842F4D8FFE706B080BD80B56F4684
:100980008CB000930192029103900490059106921D
:1009900007900892904201D8FFE704E0009A01997D
:1009A000039801F051FA019A03981146FFF7CDFF21
:1009B000FFE70298039A0199891A09910A90104455
:1009C0000B900CB080BD80B56F469EB00193029233
:1009D00003910490D7F808C0CDF814C01390149177
:1009E0001592169342F6BC01C0F2000117911891BE
:1009F00019900146069108B9FFE719E001984FF0F8
:100A0000553101EA5001401A4FF0333101EA9001AB
:100A100020F0CC30084400EB101020F0F0304FF004
:100A200001314843000E1A901A98012801D006E0BF
:100A300026E006980199013908421AD0F8E742F6F3
:100A4000BC00C0F2000007900120089042F2A070A4
:100A5000C0F20000016840680B910C9004200990DE
:100A600000200A9042F6E011C0F2000107A801F050
:100A700000F803981B901C900146009138B107E0E4
:100A800042F6C400C0F20000A62101F024F819E0EB
:100A900001984FF0553101EA5001401A4FF03331BF
:100AA00001EA900120F0CC30084400EB101020F057
:100AB000F0304FF001314843000E1D901D98012881
:100AC00001D006E0DCE700980199013908421AD00C
:100AD000F8E742F6BC00C0F200000D9001200E9035
:100AE00042F2A070C0F200000168406811911290BB
:100AF00004200F900020109042F6E011C0F2000197
:100B00000DA800F0B6FF059B029A0399049800F027
:100B10003DFA08B9FFE7B3E71EB080BD80B56F4668
:100B200082B00090019100F01AF802B080BD80B54B
:100B30006F4682B000900191FFF7F0FF02B080BDD8
:100B400082B00090019102680B6800209A4288BF31
:100B50000120411E9A4238BF084602B0704780B556
:100B60006F4684B000900191012007F8020C68469E
:100B700001A900F034F807F8030C17F8031C481C0F
:100B8000C0B2022802D3FFE706E0FEDE002007F82D
:100B9000020C0098029002E00198029003E0FFE747
:100BA000029804B080BD17F8020CC0070028F7D0E7
:100BB000FFE7F5E780B56F4682B00090019100F045
:100BC00041FD80F0010002B080BD80B56F4682B06B
:100BD00001900199781F00F036FC02B080BD80B50D
:100BE0006F4684B00190029101980299FFF7A8FF27
:100BF00004B080BD80B56F4682B00090019000F0D7
:100C000010FD0098043000F002F802B080BD80B5FD
:100C10006F4682B0019000F0D4FB02B080BD80B579
:100C20006F4692B00191014601980291049105909E
:100C30000692079200FB02F150FB02F0B0EBE1706C
:100C400018BF01200A460392089107F8210C0A9167
:100C500007F8190C17F8190CC007A8B9FFE7039A91
:100C600002980C900D9283184FF0000141F10000A2
:100C70000E9307F8090C1093002A48BF0121484041
:100C800007F8010C40B100E0FFE742F6F010C0F2B7
:100C900000005D2100F01FFF12B080BD83B0009006
:100CA00001900290B0FA80F0400903B0704780B51F
:100CB0006F4684B0019007F8051C039000F00EF811
:100CC00004B080BD80B56F4684B00090019107F8F4
:100CD000052C039000F0C6F804B080BD80B56F46C7
:100CE00094B0019007F8411C119042F68020C0F2A8
:100CF0000000129042F6B020C0F20000139017F8E6
:100D0000410C02900299DFE801F004082228420019
:100D1000FEDE0198006804903FE042F6B020C0F289
:100D2000000005900120069042F2A070C0F2000081
:100D30000168406809910A900420079000200890FB
:100D400042F62C31C0F2000105A800F092FE019895
:100D50000068BFF35F8F04901FE042F68020C0F26E
:100D600000000B9001200C9042F2A070C0F2000035
:100D7000016840680F91109004200D9000200E90A3
:100D800042F63C31C0F200010BA800F072FE01985F
:100D90000068BFF35F8F0490FFE7049814B080BD34
:100DA00080B56F4694B0019007F8411C119042F64F
:100DB0008020C0F20000129042F6B020C0F2000085
:100DC000139017F8410C02900299DFE801F0040833
:100DD00022284200FEDE0198006804903FE042F6BF
:100DE000B020C0F2000005900120069042F2A070F1
:100DF000C0F200000168406809910A900420079041
:100E00000020089042F62C31C0F2000105A800F045
:100E100030FE01980068BFF35F8F04901FE042F638
:100E20008020C0F200000B9001200C9042F2A070D4
:100E3000C0F20000016840680F91109004200D90EE
:100E400000200E9042F63C31C0F200010BA800F0E9
:100E500010FE01980068BFF35F8F0490FFE70498CD
:100E600014B080BD80B56F4694B00091019007F832
:100E7000412C1090119142F68030C0F20000129087
:100E800042F6B430C0F20000139017F8410C029003
:100E90000299DFE801F004080E284200FEDE009807
:100EA0000199086041E000980199BFF35F8F0860E5
:100EB0003BE042F6B430C0F20000049001200590FF
:100EC00042F2A070C0F200000168406808910990E9
:100ED000042006900020079042F6BC31C0F20001C9
:100EE00004A800F0C6FD42F68030C0F200000A906F
:100EF00001200B9042F2A070C0F20000016840682F
:100F00000E910F9004200C9000200D9042F6CC31F1
:100F1000C0F200010AA800F0ACFD00980199BFF3EF
:100F20005F8F0860BFF35F8FFFE714B080BD80B5AF
:100F30006F4684B0019007F8051C0390FFF730FF5F
:100F400004B080BD82B000900191B1FA81F04009F7
:100F500002B0704781B08DF801009DF80100C00714
:100F600020B9FFE701208DF8020003E000208DF892
:100F70000200FFE79DF80100C00730B9FFE79DF8C8
:100F8000020000F0010001B07047F8E780B56F463D
:100F900092B00790089109920A938446CDF804C054
:100FA0000B90084602900C91A2FB0310002818BF7A
:100FB00001200A4603920D9107F80D0C0F9107F8D6
:100FC000050C17F8050CC00760B9FFE701980299F6
:100FD000039A059201220492059A00921192884286
:100FE0000CD306E042F6DC30C0F200003D2100F0F8
:100FF00072FD01980299401A069004E00298019946
:10100000401A0690FFE7009A06990020914228BFF7
:10101000012012B080BD80B56F4686B004901430B8
:10102000042107F8091C17F8091CFFF740FE00F01F
:101030000300014601910590032803D3FFE7002038
:10104000029002E001980290FFE7029806B080BD8E
:1010500080B56F4684B000910146009801910390DD
:1010600000F00EF8009B02460199002007F8050CDD
:101070000B604A60886017F8050C087304B080BDE7
:1010800080B56F468EB005900B900C300421039113
:101090008DF828109DF82810FFF709FE03990246E5
:1010A00005980692134604930C92103007F80F1C13
:1010B00017F80F1CFFF7FBFD05990246069813462B
:1010C00007930D928968884206D2FFE70798059931
:1010D000896888421AD3FFE705980C3004210191F2
:1010E00007F80E1C17F80E2C00210291FFF7EAFDFD
:1010F0000598019A0299103007F80D2C17F80D2C5D
:10110000FFF7E0FD02980890099004E00798049921
:1011100008910990FFE7089809990EB080BD80B545
:101120006F4686B00192009102900390049105925F
:101130000068FFF770FF009A019B0146029800F0DB
:1011400002F806B080BD80B56F469CB00B900C9144
:101150000D920E931090FFE70B980C3042F67941F8
:10116000C0F2000100F06EFA10B9FFE71CB080BDBC
:101170000D980E99FFF7E6FE0028F7D1FFE70B98D0
:1011800000F091F80E99FFF7D2FC01460A911190F8
:1011900048B9FFE70C980990B0B3FFE70998012818
:1011A0003AD0FFE740E00B990D9A07920E981792FC
:1011B000189008684968039140680490159016914A
:1011C00001220592FFF72BFDDDF80CC00499059B69
:1011D00007980A9A61440691129013911492EC4672
:1011E000CCF800201A46FFF7EEFB069807990A9AFA
:1011F00001F04BF90B990A98496808440246089295
:10120000884228D31CE0FEDE0B99022007F8330C3D
:1012100017F8330C0873A9E70B99012007F8320C73
:1012200017F8320C0873BEE70B99086849680C3050
:10123000042207F8312C17F8312CFFF743FD8BE718
:101240000A980B99089A4A608968084402460292F3
:1012500088420FD305E042F67C40C0F2000001F066
:1012600077F80B9802998160016840688968884224
:1012700015D205E042F68C40C0F2000001F068F89B
:101280000A980D990E9A19911A921B9042F69C4356
:10129000C0F20003FFF772FB0D900E915CE70B9913
:1012A00000204860ECE780B56F468AB00590089052
:1012B0000068FFF7E5FE05980A4606920991406826
:1012C000814203D8FFE7069840B110E006980599DF
:1012D0004968421A0492884237D331E00599086878
:1012E00049688068421A039288420ED308E0059943
:1012F000086849688068421A029288421AD316E048
:101300000398411E019148B105E042F6AC40C0F29D
:10131000000001F030F80198079005E042F6AC407B
:10132000C0F2000001F027F807980AB080BD0298CB
:101330000790F9E742F6BC40C0F2000001F01BF84C
:101340000498411E009148B105E042F6CC40C0F23D
:10135000000001F010F800980790E5E742F6CC4055
:10136000C0F2000001F007F880B56F4682B001902E
:101370000C3042F6DC41C0F20001FFF71BFC02B06A
:1013800080BD80B56F4684B001900390007B022839
:1013900002D3FFE713E0FEDE0199086849680C30CC
:1013A000042207F8062C17F8062CFFF78BFC01998E
:1013B000022007F8050C17F8050C0873FFE704B0C6
:1013C00080BD80B56F4682B00190FFF7DAFF02B0B2
:1013D00080BD80B56F468AB001910246029207F83F
:1013E000090C0891002007F80A0C012007F80A0CE4
:1013F000042007F8150C17F8151C40F20400C2F27F
:101400000000FFF794FD014603910990FFF746FCA9
:1014100088B9FFE703980199029A002307F80A3C6C
:101420008DF814200691026840F6CB31C0F200011D
:1014300005A89047FFE717F80A0CC00710B9FFE7A7
:101440000AB080BDFCE7F0B503AF4DF8048D94B051
:101450000091014600980F911090119040F2080100
:10146000C2F200011391129110F8042B029009A806
:10147000019000F03CF8019B029803A90A4693E80A
:10148000705182E8705100F010F814B05DF8048BD0
:10149000F0BD80B56F4684B00191029207F8010C4F
:1014A00001A9FFF796FF04B080BD80B56F4682B0FA
:1014B00000910146009801910A681168526800F095
:1014C0009CF8FFF747FD0098FFF794FB02B080BD42
:1014D00081B00090006801B0704780B56F4682B05F
:1014E0000190FFF7F5FFFFF796FD02B080BDD0B584
:1014F00002AF98B00591014605980391D1B20691CB
:1015000011460491169007F8092CFFF7E1FF0146F8
:1015100007A8FFF79DFD059906980979884220D113
:10152000FFE70399049A0598079BDDF820C0DDF8D2
:1015300024E00A9C1594CDF850E0CDF84CC01293ED
:101540000430129BDDF84CC0DDF850E0159C0C61B6
:10155000C1F80CE0C1F808C04B600A75086018B00B
:10156000D0BD0598FFF7B9FF0B9042F6E041C0F2FD
:1015700000010BA800F073F818B9FFE70B980C9066
:1015800002E000200C90FFE704980C99019144F2CE
:101590004341C4F24561119143F63811C4F241212F
:1015A000109143F23451C3F236710F9143F230116E
:1015B000C3F232310E9100F00F00014602910F2864
:1015C00013D8FFE70199029A0EA8805CFF2207F862
:1015D000322C07F8310C07A8A7F132020223FFF7DB
:1015E000B2FD0599049808719BE7029842F64452AF
:1015F000C0F20002102100F085FA80B56F4686B077
:10160000019002910392043004910592FFF787FD47
:10161000002007F8150C17F8150C00F0010006B0B3
:1016200080BD80B56F4682B0009001900430FFF716
:101630009BFE28B9FFE70099087D09680870FFE75D
:1016400002B080BD84B000900191007802900978CA
:101650000391401AB0FA80F0400904B0704784B09A
:10166000009001910068029009680391401AB0FA55
:1016700080F0400904B0704780B56F4694B0069181
:1016800007900891FFE706990798884202D3FFE781
:1016900014B080BD079802900021019107F8251C25
:1016A000012003900B9007F81D1C0D9009A80E90C7
:1016B0000F900421049100F045F8019902980991D6
:1016C00009991091119100F091F80399049A0798E3
:1016D00005901290139100F0FBF8059804300790E4
:1016E000D1E780B56F468EB00691079008920991B8
:1016F000FFE706990798884202D3FFE70EB080BD46
:1017000007980190089800F0D8F80146019800F079
:10171000D9F8079802900A90012103910B910422B5
:10172000049200F0D5F802980399049A04300790C7
:10173000089805900C900D9100F009F90598043077
:101740000890D6E780B56F468EB0019109900A9156
:1017500042F68051C0F200010B910C9001460291BB
:1017600008B9FFE719E001984FF0553101EA50013F
:10177000401A4FF0333101EA900120F0CC30084498
:1017800000EB101020F0F0304FF001314843000E14
:101790000D900D98012807D00CE042F68850C0F259
:1017A00000006F2100F097F9029801990139084271
:1017B0001AD0F2E742F68050C0F2000003900120F8
:1017C000049042F2A070C0F20000016840680791E6
:1017D0000890042005900020069042F66C61C0F24B
:1017E000000103A800F045F90EB080BD80B56F463A
:1017F00084B00091019002900391FFE701980421C9
:1018000000F006F8FFE700980199086004B080BD79
:1018100080B56F468EB000910890099142F68051D4
:10182000C0F200010A910B900C900146019108B999
:10183000FFE719E000984FF0553101EA5001401AD6
:101840004FF0333101EA900120F0CC30084400EB36
:10185000101020F0F0304FF001314843000E0D9091
:101860000D98012807D00CE042F67C60C0F2000021
:101870006F2100F030F901980099013908421AD01F
:10188000F2E742F68050C0F200000290012003907F
:1018900042F2A070C0F20000016840680691079013
:1018A000042004900020059042F66C61C0F2000113
:1018B00002A800F0DEF80EB080BD81B00090006894
:1018C00001B0704782B000900191016002B0704792
:1018D00080B56F4692B00191014601980291049142
:1018E00005900692079200FB02F150FB02F0B0EB6C
:1018F000E17018BF01200A460392089107F8210CF5
:101900000A9107F8190C17F8190CC007A8B9FFE7D6
:10191000039A02980C900D9283184FF0000141F148
:1019200000000E9307F8090C1093002A48BF01210C
:10193000484007F8010C40B100E0FFE742F6EB60D9
:10194000C0F200005D2100F0C6F812B080BD80B585
:101950006F4692B001910146019802910491059061
:101960000692079200FB02F150FB02F0B0EBE1702F
:1019700018BF01200A460392089107F8210C0A912A
:1019800007F8190C17F8190CC007A8B9FFE7039A54
:1019900002980C900D9283184FF0000141F1000065
:1019A0000E9307F8090C1093002A48BF0121484004
:1019B00007F8010C40B100E0FFE742F6EB60C0F22F
:1019C00000005D2100F087F812B080BD80B56F4641
:1019D0008AB007F81D0C42F67C70C0F20000099036
:1019E00017F81D0C01900199DFE801F0041E1F207B
:1019F0002100FEDE42F67C70C0F200000390012060
:101A0000049042F2A070C0F20000016840680791A3
:101A10000890042005900020069042F6F871C0F26C
:101A2000000103A800F025F802E001E000E0FFE774
:101A30000AB080BD80B56F46FEF72DFC80B56F46BD
:101A400082B0FFE7042007F8010C17F8010CFFF73C
:101A5000BDFFF7E7704781B00090FFE7FEE780B574
:101A60006F46024643F25800C0F200002B2100F0FE
:101A70001FF880B56F4684B0CDE9010101A80122AD
:101A8000ADF80C20FFF7E7FF80B56F468AB00DF187
:101A9000040C90E870430020634683E870438DF89F
:101AA000240007A88DF82510CDE907C2FFF7D3FF62
:101AB00080B56F4688B094460122019206AA0023A1
:101AC000CDE906010092042268466146049303931F
:101AD0000292FFF7CEFF80B56F4688B00022CDE9B5
:101AE00006010492012303920422029243F2980217
:101AF000C0F2000268460021019306AB0093FFF795
:101B0000C3FFD4D480B56F468CB0CDE9000100206E
:101B1000069002200849029169460390059008A8A2
:101B200004900648CDE9090111460B9001A80890E0
:101B300002A8FFF79EFF00BFDC3000009D230000DD
:101B4000F0B503AF2DE9000F87B0D7F80C901C4615
:101B5000154600294ED0D0F81CB02B221BF00101F5
:101B600008BF4FF4881201EB090AD7F808805FEA32
:101B70004B7149D5102C069258D2002C62D004F03B
:101B8000030CA2084FF000015ED002F00302CDF872
:101B9000108005F10108CDE90249A1EB820E6FF03A
:101BA0000302059508EB0205043295F9033095F917
:101BB000064095F9056013F1410F95F90450C8BF2F
:101BC00001310EEB020315F1410FC8BF013116F1CF
:101BD000410FC8BF013114F1410FC8BF01310433B7
:101BE000E0D1DDE904850432DDE90249BCF1000FF2
:101BF0002ED145E0D0F81CB009F1010A2D22D7F80A
:101C000008805FEA4B71B5D400250168E9BB214625
:101C1000D0E90546009131462B46204600F0F1F808
:101C200060B1012007B0BDE8000FF0BD06462846B0
:101C3000214600F028F90146304621E0F3682046AD
:101C4000414678E000211BE00022BCF1000F17D0D4
:101C5000AB5613F1410FC8BF0131BCF1010F0FD0DA
:101C60002A4492F9013013F1410FC8BF0131BCF190
:101C7000020F05D092F9022012F1410FC8BF0131C5
:101C8000069A8A4401680029C1D0CDE90485D0F8BC
:101C90000480D04512D95FEA0B711ED490F8201051
:101CA000A8EB0A030692CA46A3469946DFE801F06C
:101CB0005B02550249464FF0000954E02146D0E945
:101CC000054600913146059B204600F09AF878B30E
:101CD000012007B0BDE8000FF0BD3021D0F810B0F2
:101CE00023460161012190F82050D0E9054680F893
:101CF00020103146039000932046059B00F081F8A8
:101D00000146012000297FF48DAF0695A8EB0A005B
:101D1000DDF81080451C013D14D032692046302189
:101D200090470028F7D0012007B0BDE8000FF0BDB4
:101D3000F368204604994A4607B0BDE8000FBDE8A5
:101D4000F0401847F368204641464A469847B8B3E2
:101D5000012007B0BDE8000FF0BD09F101024FEA14
:101D600059014FEA5209D0E904644D1CD0F818809B
:101D7000013D0BD0D8F8102020463146904700286E
:101D8000F6D0012007B0BDE8000FF0BDCDF800B0DF
:101D90002046DDE90532414600F033F820B101204C
:101DA00007B0BDE8000FF0BDD8F80C30204604990C
:101DB0005246984778B1012007B0BDE8000FF0BD4A
:101DC0000398069980F82010C0F810B0002007B0E2
:101DD000BDE8000FF0BD0025A94509D0D8F81020B6
:101DE00020463146904701350028F5D0691E00E0B5
:101DF00049460020494538BF012007B0BDE8000F23
:101E0000F0BDF0B503AF4DF8048DD7F808801C463F
:101E10000E46B2F5881F0AD0336911460546984729
:101E20000146284619B101205DF8048BF0BD3CB194
:101E3000F368214642465DF8048BBDE8F040184740
:101E400000205DF8048BF0BD80B56F468CB0CDE905
:101E50000001002043F2E81106900220C0F20001C8
:101E60000390059008A8029101A9049042F29D30C8
:101E7000C0F20000CDE9090111460B9068460890B8
:101E800002A8FFF7F6FDF0B503AF2DE9000F82B011
:101E90008146033020F0030AAAEB090841450AD322
:101EA000A1EB080E5FEA9E0C05D00EF00302CA45B6
:101EB0005AD10020A0E089B301F0030C8A084FF04A
:101EC000000030D0A0EB820E09F101066FF003058F
:101ED0007319043593F9031093F9064093F905201B
:101EE00011F1410F93F90430C8BF01300EEB050129
:101EF00013F1410FC8BF013012F1410FC8BF0130CB
:101F000014F1410FC8BF01300431E1D12A1DBCF1E9
:101F1000000F0CD102B0BDE8000FF0BD002002B0F0
:101F2000BDE8000FF0BD0022BCF1000FF2D019F99E
:101F3000021011F1410FC8BF0130BCF1010FE9D00F
:101F40004A4492F9011011F1410FC8BF0130BCF1B0
:101F5000020FDFD092F9021011F1410FC8BF01301A
:101F600002B0BDE8000FF0BDA9EB0A0010F1040FAC
:101F700002D90020002523E009F1010B00206FF0B9
:101F800003060BEB060595F9034095F9063095F924
:101F9000051014F1410F95F90450C8BF013015F137
:101FA000410FC8BF013011F1410FC8BF013013F11B
:101FB000410FC8BF013016F1080506F10406E0D153
:101FC000CA4519D019F9051011F1410FC8BF0130E8
:101FD000B8F1010F10D009EB050191F9013013F1AF
:101FE000410FC8BF0130B8F1020F05D091F90210BE
:101FF00011F1410FC8BF013009EB08040023C2B141
:102000002EF00301214491F9006016F1410FC8BF81
:102010000123012A0DD091F9016016F1410FC8BFCB
:102020000133022A05D091F9021011F1410FC8BF06
:102030000133184412E04FF000083FFA88F23FFAEB
:1020400098F31A44ACEB0B0C0AEB8B041BF0030166
:1020500002EB024200EB124040F04981BCF1000F5C
:102060003FF458AFBCF1C00FE34628BF4FF0C00BA0
:10207000A246BCF1040FDED36FF00F01012201EB89
:102080008B01302902EB1112CDE9002A03D24FF067
:1020900000085446ABE022F003094FF00008544614
:1020A00094E80E04B9F10409A6696FEA010E4FEA3B
:1020B000DE1545EA91116FEA020521F0FE314FEA83
:1020C000D51545EA9212414422F0FE320A446FEAE5
:1020D00003014FEAD11545EA931323F0FE33256936
:1020E0001A446FEA0A034FEAD313616943EA9A1369
:1020F000D4F8388023F0FE33D4F83CE01A446FEA79
:1021000005034FEAD31343EA9513E56923F0FE3341
:102110001A446FEA01034FEAD31343EA911121F005
:10212000FE31236A11446FEA06024FEAD21242EAF4
:102130009612666A22F0FE3211446FEA05024FEAF7
:10214000D21242EA9512A56A22F0FE3211446FEAD9
:1021500003024FEAD21242EA9312E36A22F0FE32FD
:1021600011446FEA06024FEAD21242EA9612266B37
:1021700022F0FE3211446FEA05024FEAD21242EA1F
:102180009512656B22F0FE3204F1400411446FEAAF
:1021900003024FEAD21242EA931222F0FE321144B5
:1021A0006FEA06024FEAD21242EA961222F0FE329B
:1021B00011446FEA05024FEAD21242EA951222F068
:1021C000FE3211446FEA08024FEAD21242EA981234
:1021D00022F0FE3211446FEA0E024FEAD21242EAB6
:1021E0009E1222F0FE3202EB01087FF459AF0099F3
:1021F000DDF804A011F0030E3FF41FAF94E84C008B
:10220000BEF1010FE5686FEA02014FEAD11141EA20
:1022100092116FEA03024FEAD21221F0FE3142EA34
:102220009312414422F0FE3211446FEA06024FEA53
:10223000D21242EA961222F0FE3211446FEA0502EF
:102240004FEAD21242EA951222F0FE3202EB010866
:102250003FF4F3AE04F11005BEF1020F2ECD6FEA8C
:1022600001064FEAD61646EA91116FEA020621F0FE
:10227000FE314FEAD61646EA9212414422F0FE326F
:1022800011446FEA03024FEAD21242EA931222F09B
:10229000FE3211446FEA05024FEAD21242EA951269
:1022A00022F0FE3202EB01083FF4C7AE04F1200633
:1022B0004ECECD43ED0945EA9111D54321F0FE31D3
:1022C000ED0945EA9212414422F0FE321144DA430C
:1022D000D20942EA931222F0FE321144F243D209AB
:1022E00042EA961222F0FE3202EB0108A5E60BF05C
:1022F000FC0301295AF823206FEA02064FEAD6169A
:1023000046EA921222F0FE3215D00AEB830302292C
:102310005E686FEA06054FEAD51545EA961626F07F
:10232000FE36324407D09968CB43DB0943EA91116A
:1023300021F0FE310A443FFA82F13FFA92F2114451
:1023400001EB014100EB114002B0BDE8000FF0BD10
:1023500080B56F4686B001460020012204900192AC
:1023600043F2240203900420C0F200020290684667
:102370000092FFF77EFB80B56F4686B001460020D5
:1023800001220490019243F2500203900420C0F213
:102390000002029068460092FFF76BFBF0B503AFB6
:1023A0002DE9000F87B0046843F2EC0042F2107E82
:1023B0000D467445C0F200003DD341F259784EF20B
:1023C000FF03A7F1260B0021CDF2B71841F27B499C
:1023D0004FF0640AC0F2F5530395A4FB08250BEBFC
:1023E000010C04399C424FEA553202FB1E4514464B
:1023F000AEB24FEA960606FB09F64FEA564606FBD2
:102400001A5530F81660ACF80660ADB230F81550C9
:10241000ACF80850E1D8039D01F10A031446632C7F
:102420000CD821460A291BD330F811009A1EA7F1B7
:10243000260188521AE00A23632CF2D9A1B241F294
:102440007B428908023B51436422A7F12606490CCE
:1024500001FB124292B230F81220F2520A29E3D262
:1024600041F030005A1EA7F126018854C2F10A003B
:10247000114401220023CDE9001028460121FFF775
:102480005FFB07B0BDE8000FF0BD00F000B8F0B58D
:1024900003AF2DE90007102A63D3434213F003046E
:1024A00000EB040C16D003460E46357803F8015BAA
:1024B00063450FD2757803F8015B63453EBFB5787D
:1024C00003F8015B634505D2F578043603F8015B38
:1024D0006345EAD3A2EB040E01EB04092EF00308D6
:1024E0000CEB08035FEA89713ED0B8F1010F54DBB1
:1024F000182129F0030201EAC90A4FEAC90102F1D1
:1025000008054942126801F0180655F8041C22FA21
:102510000AF201FA06F422434CF8042B9C453CD203
:102520002A6821FA0AF102FA06F421434CF8041B46
:102530009C453FBF696822FA0AF201FA06F4224379
:102540003CBF4CF8042B9C4527D2AA6821FA0AF11B
:10255000103502FA06F421434CF8041B9C45D4D3F1
:102560001BE00346F2B933E0B8F1010F15DB4C462E
:1025700021684CF8041B9C450FD261684CF8041B81
:102580009C453EBFA1684CF8041B9C4505D2E16800
:1025900010344CF8041B9C45EAD309EB08010EF0FB
:1025A0000302AAB11A440E7803F8016B93420FD2CA
:1025B0004E7803F8016B93423EBF8E7803F8016BAF
:1025C000934205D2CE78043103F8016B9342EAD3EB
:1025D000BDE80007F0BD70460421084202D1EFF3C8
:1025E000088002E0EFF30980FFE780B56F4682B014
:1025F0000190FFE7042007F8050C17F8050CFFF71A
:04260000E5F9F7E71A
:1026040000496E6974207A6967626565210A73728C
:10261400632F6D61696E2E72730000001226000034
:102624000B0000001B0000002B00000049646C65D7
:102634002E0A53656E64206B65657020616C697643
:102644006520746F207374617920696E206E6574DF
:10265400776F726B2E0A7A6967626565436F6E6E77
:1026640065637420746F206E6561726279207A6983
:1026740067626565206E6574776F726B2E0A2F55DD
:10268400736572732F73747565726D65722F2E6323
:102694006172676F2F72656769737472792F7372D1
:1026A400632F696E6465782E6372617465732E6935
:1026B4006F2D3666313764323262626131353030C3
:1026C40031662F6E726635323833332D7061632D67
:1026D400302E31322E322F7372632F67656E65721E
:1026E40069632E72730000008226000067000000F8
:1026F4003D0200000100000069735F616C69676E50
:1027040065645F746F3A20616C69676E2069732039
:102714006E6F74206120706F7765722D6F662D74F3
:10272400776F0000FC2600002A000000756E7361BC
:10273400666520707265636F6E646974696F6E2874
:1027440073292076696F6C617465643A20707472C1
:102754003A3A726561645F766F6C6174696C652086
:102764007265717569726573207468617420746828
:102774006520706F696E74657220617267756D652E
:102784006E7420697320616C69676E656420616E84
:1027940064206E6F6E2D6E756C6C0000000000007E
:1027A400000000002F55736572732F737475657282
:1027B4006D65722F2E7275737475702F746F6F6CD4
:1027C400636861696E732F737461626C652D6161F6
:1027D40072636836342D6170706C652D6461727734
:1027E400696E2F6C69622F727573746C69622F73D2
:1027F40072632F727573742F6C6962726172792FB0
:10280400636F72652F7372632F7074722F636F6EB0
:1028140073745F7074722E7273000000A827000036
:1028240075000000430600000D000000756E736122
:10283400666520707265636F6E646974696F6E2873
:1028440073292076696F6C617465643A20736C69CE
:1028540063653A3A6765745F756E636865636B6553
:10286400642072657175697265732074686174207F
:102874007468652072616E67652069732077697476
:1028840068696E2074686520736C69636569735F39
:10289400616C69676E65645F746F3A20616C696727
:1028A4006E206973206E6F74206120706F7765727B
:1028B4002D6F662D74776F00912800002A000000A8
:1028C400756E7361666520707265636F6E6469749A
:1028D400696F6E2873292076696F6C617465643A38
:1028E400207074723A3A636F70795F6E6F6E6F76B0
:1028F40065726C617070696E67207265717569725A
:102904006573207468617420626F746820706F69E5
:102914006E74657220617267756D656E7473206183
:10292400726520616C69676E656420616E64206EF7
:102934006F6E2D6E756C6C20616E642074686520FA
:10294400737065636966696564206D656D6F72791E
:102954002072616E67657320646F206E6F74206FE0
:102964007665726C61702F55736572732F7374750D
:1029740065726D65722F2E7275737475702F746F16
:102984006F6C636861696E732F737461626C652D1B
:10299400616172636836342D6170706C652D646199
:1029A4007277696E2F6C69622F727573746C6962C9
:1029B4002F7372632F727573742F6C6962726172F4
:1029C400792F636F72652F7372632F7074722F6324
:1029D4006F6E73745F7074722E7273006A290000D4
:1029E40075000000430600000D000000756E736161
:1029F400666520707265636F6E646974696F6E28B2
:102A040073292076696F6C617465643A20707472FE
:102A14003A3A6F666673657420726571756972659A
:102A240073207468652061646472657373206361E4
:102A34006C63756C6174696F6E20746F206E6F7453
:102A4400206F766572666C6F77746865726520694D
:102A540073206E6F2073756368207468696E6720D5
:102A6400617320616E20616371756972652D726591
:102A74006C65617365206C6F616400004D2A000011
:102A8400310000007468657265206973206E6F20E0
:102A940073756368207468696E67206173206120B0
:102AA40072656C65617365206C6F6164882A0000CF
:102AB400280000002F55736572732F737475657247
:102AC4006D65722F2E7275737475702F746F6F6CC1
:102AD400636861696E732F737461626C652D6161E3
:102AE40072636836342D6170706C652D6461727721
:102AF400696E2F6C69622F727573746C69622F73BF
:102B040072632F727573742F6C6962726172792F9C
:102B1400636F72652F7372632F73796E632F6174A1
:102B24006F6D69632E727300B82A00007300000091
:102B3400040D000018000000B82A00007300000013
:102B4400050D000017000000746865726520697344
:102B5400206E6F2073756368207468696E672061E6
:102B64007320616E20616371756972652D72656C85
:102B7400656173652073746F726500004C2B0000EF
:102B8400320000007468657265206973206E6F20DE
:102B940073756368207468696E6720617320616E61
:102BA40020616371756972652073746F72650000CA
:102BB400882B00002A000000B82A000073000000DF
:102BC400F50C000018000000B82A00007300000093
:102BD400F60C00001700000069735F6E6F6E6F766D
:102BE40065726C617070696E673A206073697A65AA
:102BF4005F6F663A3A3C543E2829202A20636F7559
:102C04006E7460206F766572666C6F7773206120D6
:102C14007573697A652F55736572732F737475654F
:102C2400726D65722F2E636172676F2F72656769AB
:102C3400737472792F7372632F696E6465782E636F
:102C440072617465732E696F2D3666313764323262
:102C54006262613135303031662F7274742D746163
:102C6400726765742D302E332E312F7372632F7279
:102C740074742E7273000000192C000060000000B0
:102C8400E70000000D000000192C000060000000A7
:102C9400E80000000D000000192C00006000000096
:102CA400EF00000017000000192C00006000000075
:102CB400FA0000000D000000192C00006000000064
:102CC400FC0000000D000000192C00006000000052
:102CD400F80000000D0000000200000001000000E8
:102CE4002F55736572732F73747565726D65722FCA
:102CF4002E636172676F2F72656769737472792FBF
:102D04007372632F696E6465782E63726174657380
:102D14002E696F2D36663137643232626261313525
:102D2400303031662F7274742D7461726765742D3E
:102D3400302E332E312F7372632F6C69622E7273AF
:102D4400E42C0000600000002E01000032000000AE
:102D540069735F616C69676E65645F746F3A206163
:102D64006C69676E206973206E6F74206120706FC8
:102D74007765722D6F662D74776F0000542D0000F7
:102D84002A000000756E7361666520707265636F5A
:102D94006E646974696F6E2873292076696F6C613B
:102DA4007465643A207074723A3A77726974655F34
:102DB40062797465732072657175697265732074C4
:102DC400686174207468652064657374696E6174E5
:102DD400696F6E20706F696E74657220697320610B
:102DE4006C69676E656420616E64206E6F6E2D6E13
:102DF400756C6C2F55736572732F73747565726D72
:102E040065722F2E7275737475702F746F6F6C6387
:102E14006861696E732F737461626C652D61617290
:102E2400636836342D6170706C652D6461727769E6
:102E34006E2F6C69622F727573746C69622F737272
:102E4400632F727573742F6C6962726172792F6368
:102E54006F72652F7372632F7074722F636F6E734A
:102E6400745F7074722E7273F72D00007500000089
:102E7400430600000D000000756E736166652070E6
:102E84007265636F6E646974696F6E287329207646
:102E9400696F6C617465643A207074723A3A77723F
:102EA4006974655F766F6C6174696C6520726571B5
:102EB4007569726573207468617420746865207024
:102EC4006F696E74657220617267756D656E7420CA
:102ED400697320616C69676E656420616E64206E3D
:102EE4006F6E2D6E756C6C756E7361666520707295
:102EF40065636F6E646974696F6E287329207669DF
:102F04006F6C617465643A207074723A3A6F6666E5
:102F14007365742072657175697265732074686570
:102F240020616464726573732063616C63756C61A2
:102F340074696F6E20746F206E6F74206F76657283
:102F4400666C6F777468657265206973206E6F2094
:102F540073756368207468696E67206173206120EB
:102F640072656C6178656420636F6D70696C6572FD
:102F74002066656E63650000482F00003200000083
:102F84002F55736572732F73747565726D65722F27
:102F94002E7275737475702F746F6F6C63686169CA
:102FA4006E732F737461626C652D61617263683630
:102FB400342D6170706C652D64617277696E2F6C4D
:102FC40069622F727573746C69622F7372632F72E6
:102FD4007573742F6C6962726172792F636F726595
:102FE4002F7372632F73796E632F61746F6D6963CE
:102FF4002E727300842F000073000000AF0E0000D7
:1030040018000000617474656D707420746F206121
:1030140064642077697468206F766572666C6F7774
:10302400083000001C000000617474656D70742029
:10303400746F207375627472616374207769746845
:10304400206F766572666C6F770000002C3000008C
:103054002100000063616C6C656420604F707469CA
:103064006F6E3A3A756E77726170282960206F6EC0
:10307400206120604E6F6E65602076616C756563BB
:103084006F72652F7372632F70616E69636B696E03
:10309400672E72738330000015000000DD0000000D
:1030A40005000000696E646578206F7574206F6692
:1030B40020626F756E64733A20746865206C656E67
:1030C40020697320206275742074686520696E64B9
:1030D4006578206973200000A830000020000000FB
:1030E400C83000001200000030303031303230334C
:1030F40030343035303630373038303931303131A2
:103104003132313331343135313631373138313987
:10311400323032313232323332343235323632377F
:103124003238323933303331333233333334333565
:10313400333633373338333934303431343234334B
:103144003434343534363437343834393530353131
:103154003532353335343535353635373538353917
:10316400363036313632363336343635363636370F
:1031740036383639373037313732373337343735F5
:1031840037363737373837393830383138323833DB
:1031940038343835383638373838383939303931C1
:1031A40039323933393439353936393739383939A7
:1031B40072616E676520737461727420696E6465F0
:1031C4007820206F7574206F662072616E676520A9
:1031D400666F7220736C696365206F66206C656E20
:1031E40067746820B431000012000000C63100008A
:0431F40022000000B5
:0400000300000101F7
:00000001FF
